:020000040000FA
:10000000683A002055010000790B0000C10A000089
:10001000010B00005504000039510000FFFFFFFFF5
:10002000FFFFFFFFFFFFFFFFFFFFFFFF3D4F000050
:10003000AF080000FFFFFFFF07020000151F0000D0
:100040006F0100006F0100006F0100006F010000F0
:100050006F0100006F0100006F0100006F010000E0
:100060006F0100006F0100006F0100006F010000D0
:100070006F0100006F0100006F0100006F010000C0
:100080006F0100006F0100006F0100006F010000B0
:100090006F0100006F0100006F0100006F010000A0
:1000A0006F0100006F010000FFFFFFFF6F01000004
:1000B0006F0100006F0100006F0100006F01000080
:1000C0006F0100006F0100006F0100006F01000070
:1000D000CD080000FFFFFFFFFFFFFFFFFFFFFFFF57
:1000E000FFFFFFFF6F0100006F0100006F010000C4
:1000F0006F0100006F0100006F0100006F01000040
:100100006F0100006F0100006F0100006F0100002F
:100110006F0100006F010000FFFFFFFF6F01000093
:100120006F0100006F0100006F0100006F0100000F
:100130006F0100006F0100006F010000FFFFFFFF73
:10014000FFFFFFFFFFFFFFFFFFFFFFFFFFFFFFFFBF
:100150006F0100000648804706480047FEE7FEE7BB
:10016000FEE7FEE7FEE7FEE7FEE7FEE7FEE7FEE767
:10017000414F000079010000DFF80CD000F020F8BA
:10018000004800475D510000683A002072B6704791
:1001900062B67047EFF3108072B6704780F3108834
:1001A000704730BF704720BF7047B0FA80F070478B
:1001B00090FAA0F0B0FA80F0704790FAA0F0704783
:1001C000064C074D06E0E06840F0010394E80700A4
:1001D00098471034AC42F6D3FFF7D2FF1C5400000E
:1001E0003C54000018484FF0FF010170002080F3DC
:1001F00009881648016881F3088815484FF0805136
:10020000016062B6FEE772B6EFF3098028B12038CC
:1002100080E8F00F0F490968086000B50E48804774
:100220005DF804EB0D480E490A78027009480D4943
:100230000A680260106890E8F00F203080F30988A7
:100240004EF0040E62B6704722ED00E0F000002090
:1002500004ED00E0E8000020C91C0000760000204A
:1002600077000020EC0000202DE9F04104460B4609
:100270001546DFF8808008EBC40200200026002726
:10028000002132E0002600274FF0FF0C0CFA01FCA1
:100290000CEA030CBCF1000F25D0002019E023FA72
:1002A00000FC4FF0010808FA01F80CEA080CBCF158
:1002B000000F0DD04FEA80084FF00F0C0CFA08FC2D
:1002C0004CEA06064FEA800C05FA0CFC4CEA0707DC
:1002D000401C0828E3D3D2F800C02CEA060C4CEAF4
:1002E000070CC2F800C0121D08310829CADDBDE89C
:1002F000F08100002020024008B5002410E0E2B2A6
:100300004FF40071074800F0DCFA0CB9012000E05E
:10031000002004466A4600214FF47A7001F026FD61
:10032000EDE7000000400B4008B5002410E0E2B209
:100330004FF40061074800F0C4FA0CB9012000E056
:10034000002004466A46002141F2883001F00EFD8B
:10035000EDE7000000400B4070B58AB0064600F0A3
:100360006FF800F055F900F063F804462048006883
:10037000B4FBF0F5284601F0EDFD09A800F03AFFC6
:1003800000F0B4F909A8032100220592CDE9062165
:10039000089005204FF400713322164BCDE901324D
:1003A000CDE9031003200023134A14A1009017483D
:1003B00000F0AAFF09A8032100220592CDE9062139
:1003C000089005204FF400713322114BCDE9013222
:1003D000CDE90310032000230E4A0FA1009012481C
:1003E00000F092FF09A9114801F0E4F80AB070BDCD
:1003F0006C52000054060020F90200004170702089
:100400005461736B204C656431000000FC010020D6
:10041000540E002029030000417070205461736B5A
:10042000204C656432000000C4020020340100202A
:1004300000B585B0684600F05DF8019805B000BDD4
:1004400010B500F09AFB00F007F804F065FD00F02D
:1004500053FB10BD00BFFEE70EB5002000900190D9
:100460000290019820F4807000F58070019001984E
:1004700020F4007000F500700190019820F4806075
:1004800000F580600190019820F4006000F50060A4
:100490000190009820F4803000F5803000900098A2
:1004A00020F4003000F500300090009820F4802007
:1004B00000F580200090009820F4002000F5002036
:1004C0000090009820F4801000F5801000900198B2
:1004D00020F4804000F580400190029820F40070E4
:1004E00000F50070029001239DE8070000F076F807
:1004F0000EBD000070B504461B48406B032101EAA5
:10050000907600F035F82060012E04D0022E05D040
:10051000032E09D105E02068606008E013486060A0
:1005200005E01248606002E00020606000BF00BF8C
:100530000D496068096AC840A0600B490968C1F3A9
:100540000150A168C140E1600748806AC0F30245DC
:10055000072D04D10621A068B0FBF1F001E0A068EE
:10056000E840206170BD00000080084000127A0061
:100570001148006808B9002070470F48A438006A85
:1005800008B90E4800E00D4803460D4800680128F0
:1005900001D11846F0E70B488069C0F3C55101B995
:1005A000402108488069C0F34152012000FA02F25C
:1005B000B3FBF2F04843DFE7A400104300127A00D7
:1005C000FC0310430080084010B585B0044668461F
:1005D000FFF790FF029805B010BD00001FB50B4C4F
:1005E000606AE16A226B009CA043019CA143029CCB
:1005F000A2432BB1009C2043019C2143029C224337
:10060000024C6062E16222631FBD0000008008406E
:1006100010B500F0FBF800F003F800F0F3F810BD9F
:1006200070B500260020184908801849088018492C
:100630000860184908601849086018490860184996
:100640000860002400BFFFF7A5FD064600BF002597
:100650000BE000201049086000F074F800F08CF8FE
:100660000D4800680444681C85B2002DF1D00C4888
:1006700004600020084908600849086000BF30464F
:10068000FFF78CFD00BF70BD0400002006000020B5
:10069000080000200C00002014000020180000209A
:1006A0001000002001460846044A1268904203D90F
:1006B000024A1268801A00E00020704710000020F3
:1006C00070B5002500BFFFF765FD054600BF064871
:1006D000046800BF2846FFF761FD00BF2046FFF712
:1006E000E1FF0646304670BD1400002070B50025BD
:1006F000FFF7E6FF044600BFFFF74CFD054600BFCD
:1007000000200449086000BF2846FFF747FD00BFEE
:10071000204670BD1400002070B5002500BFFFF713
:1007200039FD054600BF0648046800BF2846FFF7AC
:1007300035FD00BF2046FFF7B5FF0646304670BDC9
:100740001800002010B509480088401C074908809F
:100750000748008818B900F083F806490860044883
:100760000088401C0249088010BD000004000020E1
:10077000060000200800002010B50F480088401E29
:100780000D49088008460088A0B900F069F80B49B7
:100790000860084600680A490968441A0948006860
:1007A000A04201D20748046007480068A04201D275
:1007B0000548046010BD0000060000200C00002069
:1007C00008000020140000201800002010B50024AC
:1007D00000BF00BFFFF7DEFC044600BFFFF7B2FF1B
:1007E00000BF1021064800F08DF900BFFFF7C4FFDD
:1007F00000BF2046FFF7D2FC00BF00BF10BD0000C5
:10080000541E002010B5FFF7E1FF10BD10B5002009
:100810000249086000F00AF810BD00000000002046
:1008200001490860704700000000002010B50A4828
:10083000006840F08070084908600020074948605F
:100840000846006840F001000860FFF7F1FD04462B
:100850002046FFF7E5FF10BDFCED00E0001000E0D2
:100860000148406870470000001000E010B5037BAD
:100870004BB912B10123036001E000230360416022
:100880000123037312E012B103685B1E0360038847
:1008900001EB034344681B1B8360437B13B10123BB
:1008A000837301E0012343730023037310BD70477A
:1008B0001AB103680B43036002E003688B430360D3
:1008C00070470AB1416200E0816270472DE9F04152
:1008D00000255748C46F56488030066804F480707D
:1008E0005349C96F01F48071884204D05048C46FE5
:1008F0004F4880300668E0434D49C86704F4807073
:1009000060B301254B4800684FF6FF71884204D060
:1009100048480068401C47490860474800684FF64F
:10092000FF71884204D044480068401C4249086076
:10093000424800684FF6FF71884204D03F48006883
:10094000401C3E4908603E4800684FF6FF718842EF
:1009500004D03B480068401C3949086004F001009D
:10096000B0B1334804F081FB07461DB1B74201D94D
:10097000012000E000208046B9B242462D48FFF732
:1009800075FF2C48027B0021294804F061FB00BF61
:1009900004F00200B0B1264804F06BFB07461DB11D
:1009A000B74201D9012000E000208046B9B242469A
:1009B0002148FFF75BFF2048027B01211C4804F01F
:1009C00047FB00BF04F00400B0B1194804F055FB28
:1009D00007461DB1B74201D9012000E00020804642
:1009E000B9B242461548FFF741FF1448027B022185
:1009F0000F4804F02DFB00BF04F00800B0B10C4814
:100A000004F03FFB07461DB1B74201D9012000E0C9
:100A100000208046B9B242460948FFF727FF084840
:100A2000027B0321024804F013FB00BFBDE8F08104
:100A300000F00640F4000020040100201401002012
:100A400024010020FEB505460E461C4800EB0514A7
:100A5000002000900190029035B9019820F4807038
:100A600000F58070019005E0019820F4806000F5A9
:100A700080600190019820F4804000F58040019052
:100A800001239DE80700FFF7A9FD227AE18820797C
:100A9000FFF7EAFBA27BA189A07AFFF7E5FB3146CD
:100AA000206804F0F3FA01220021206804F034FBEE
:100AB00001221146206804F02FFBFEBDEC5100001E
:100AC00000BFFEE710B500224FF400710220FFF7CF
:100AD000CBFB00224FF400610220FFF7C5FB01228F
:100AE00051020448FFF7E4FE0122D1020148FFF75A
:100AF000DFFE10BD00400B4010B5FFF7E3FF10BD57
:100B000000BFFEE730B505460C46224600212846C8
:100B100000F001F830BD2DE9F04103460C461746C0
:100B20000FB9BDE8F08103B9FBE70025002202E020
:100B30002D022543521C042AFAD3384603F0030C35
:100B40001946BCF1000F08D0624603E001F8014BE2
:100B5000401E521C08B1042AF8D30E4601E020C6FC
:100B6000001F0428FBD2314602E001F8014B401E71
:100B70000028FAD100BFD4E7704710B5002108461D
:100B800000F002F810BD0000024A0A400243024B86
:100B90001A60704780FFFF1F08ED00E070470000FB
:100BA00010B501F08BF90348006810B101480068E6
:100BB000804710BD2C00002070B5044600F0C2F83C
:100BC0000020484908704849087048490870484959
:100BD0000860484908604849087048490870484911
:100BE0000870484908604849086048490860484911
:100BF0000870484800680A21B0FBF1F046490860D7
:100C00004648006858B14648056845B143480668FB
:100C100003E0761E002028602D1D002EF9D1002053
:100C20004049086040490860404908604049086000
:100C300040490860404908604049086040490870E0
:100C400002F01AF902F018FA204601F075FA20882D
:100C500000B170BD204601F08FFE208800B1F8E79A
:100C6000204601F095FE208800B1F2E7204601F011
:100C700079FF208800B1ECE7204602F02DF92088AA
:100C800000B1E6E7204602F07DFB208800B1E0E7F6
:100C9000204602F0E7FE208800B1DAE7204601F0A6
:100CA000D7FD208800B1D4E7204601F0E1FB208881
:100CB00000B1CEE7204603F03DFF208800B1C8E731
:100CC000204602F013FE208800B1C2E7204603F060
:100CD0008DFF208800B1BCE701F054F9FFF75EFFFB
:100CE00000BFB6E740000020480000209000002030
:100CF000E8000020EC0000207600002077000020B3
:100D00007800002084000020880000208C00002053
:100D1000980000206C520000940000203C5200001B
:100D2000385200002000002024000020280000206D
:100D30002C0000203000002034000020380000206B
:100D4000C60000200A4A1168002002E0002204C107
:100D5000401C084A12689042F8D3054A1268054BB5
:100D60001B6802EB8302121F034B1A6070470000DE
:100D7000385200003C520000F000002010B5002462
:100D80002E480078012800D010BD00BFFFF702FAFE
:100D9000044600BF2A48007828B900BF2046FFF764
:100DA000FDF900BFF0E726480078401E244908708E
:100DB00008460078002805DD00BF2046FFF7EEF961
:100DC00000BFE1E71F480078002805DD00BF20468E
:100DD000FFF7E4F900BFD7E702F03AF81A490870C4
:100DE0000846007800EB4000184951F820001849E7
:100DF00008600846006817490968884205D100BFA5
:100E00002046FFF7CBF900BFBEE711480068D0F8D5
:100E10009000401C0E490968C1F890000E48006817
:100E2000401C0D4908604FF080500C49086000BF1D
:100E30002046FFF7B3F900BF00BFA5E74800002038
:100E40004000002090000020770000209034002017
:100E5000EC000020E8000020BC00002004ED00E0D1
:100E600010B5002420480078002800DD10BD1F4880
:100E70000078002800DDF9E700BFFFF78BF9044692
:100E800000BF01F0E5FF1A4908700846007800EB42
:100E90004000184951F820001749086008460068CA
:100EA00016490968884205D100BF2046FFF776F948
:100EB00000BFDBE710480068D0F89000401C0E49E6
:100EC0000968C1F890000E480068401C0C49086091
:100ED0004FF080500B49086000BF2046FFF75EF9D5
:100EE00000BF00BFC2E700004000002090000020CB
:100EF0007700002090340020EC000020E800002063
:100F0000BC00002004ED00E070B5044600251A483E
:100F10000078002803DD46F66250208070BD174837
:100F20000078012803D045F689602080F6E7144850
:100F30000078FA2803DB45F209202080EEE700BFA5
:100F400000BFFFF727F9054600BFFFF7FBFB00BF17
:100F50000B480078401C0A49087002F071F900BF84
:100F6000FFF70AFC00BF2846FFF718F900BF00BFD3
:100F70000020208000BFD1E7400000204800002072
:100F80009000002070B50446002523480078002812
:100F900003DD46F66550208070BD204800780128AA
:100FA00003D045F689602080F6E71D48007818B91F
:100FB00046F664502080EFE700BF00BFFFF7EAF875
:100FC000054600BFFFF7BEFB00BF15480078401E76
:100FD000134908700846007800280CDD00BFFFF7B1
:100FE000CBFB00BF2846FFF7D9F800BF00BF46F68D
:100FF00063502080D0E702F031F900BFFFF7BCFB5F
:1010000000BF2846FFF7CAF800BF00BFFFF728FF60
:101010000020208000BFBFE74000002048000020E3
:101020009000002010B5044612480078E8B901F09D
:101030000FFF1149087008460078104908700E48E3
:10104000007800EB40000E4951F820000D4908607F
:10105000084600680C490860012006490870FFF73F
:10106000C1F843F69920208002E045F68A6020808E
:1010700010BD00004800002077000020760000200E
:1010800090340020EC000020E80000202DE9F04121
:1010900007464FF0000800BF00BFFFF77BF880460F
:1010A00000BFFFF74FFB00BF0020474908604749DA
:1010B0000880474908804749086047490860474910
:1010C000086047490860474908604749088100BFF0
:1010D000FFF752FB00BF4046FFF760F800BF00BFBC
:1010E00000BF00BFFFF756F8804600BFFFF72AFB9E
:1010F00000BF3E48046800BFFFF73EFB00BF40460C
:10110000FFF74CF800BF00BF26E000BF00BFFFF7AD
:1011100041F8804600BFFFF715FB00BF0020783480
:10112000E063206420602063A061A082E0826062AE
:10113000A062FFF795FB2062783C04F16406002072
:10114000B081D4F8C04000BFFFF716FB00BF404697
:10115000FFF724F800BF00BF002CD6D100BF00BFAE
:10116000FFF718F8804600BFFFF7ECFA00BF2048F1
:10117000056800BFFFF700FB00BF4046FFF70EF811
:1011800000BF00BF16E000BF00BFFFF703F88046B6
:1011900000BFFFF7D7FA00BF05F120060020B0819D
:1011A000AD6900BFFFF7E8FA00BF4046FEF7F6FF63
:1011B00000BF00BF002DE6D103F084FB03F012FE58
:1011C00000203880BDE8F0815C000020560000203F
:1011D000A6000020B8000020CC000020D80000208D
:1011E000440000208800002084340020C00000203B
:1011F0007C000020F8B5044600266946364800F019
:1012000033FDBDF8000018B1BDF800002080F8BD26
:101210006A460021022000F0A9FDBDF8000018B1C7
:10122000BDF800002080F2E700BF00BFFEF7B2FF6C
:10123000064600BFFFF786FA00BF00202749086076
:1012400000BFFFF799FA00BF3046FEF7A7FF00BFC7
:1012500000BF00252248006822490968884205D954
:101260001F4800681F490968B0FBF1F525B91C4803
:1012700000680A21B0FBF1F56A460021284600F01B
:1012800075FD6946144800F0A5FABDF8000018B1D4
:10129000BDF800002080BAE700BF00BFFEF77AFF6C
:1012A000064600BFFFF74EFA00BF00200E49086057
:1012B0000A4800680D49086001200D49087000BF08
:1012C000FFF75AFA00BF3046FEF768FF00BF00BFC5
:1012D0000020208000BF9AE7A0370020A80000204F
:1012E0006C52000054520000B8000020AC000020F6
:1012F000B400002010B50348006810B10148006830
:10130000804710BD300000202DE9FF4F87B0044614
:101310009046DDE91BA5DDE91496179F0020039098
:1013200095480078002805DD47F24A1028800BB068
:10133000BDE8F08F1CB947F2AD102880F7E7B8F18F
:10134000000F03D147F24F102880F0E71EB946F690
:101350002F602880EBE789480068874203D246F671
:1013600030602880E3E71698B84203D346F6316030
:101370002880DCE7B9F1200F03D346F273202880E0
:10138000D5E7B9F1000F06D17D48844203D046F27B
:1013900073202880CBE7B9F11F0F06D1794884422A
:1013A00003D046F273202880C1E7204602F06AFB92
:1013B000002028800AF0010090B10AF0020078B104
:1013C00005960020069008E0002105980160059828
:1013D000001D05900698401C06900698B842F3D36D
:1013E000169806EB80000490CDE9007A324640461C
:1013F000049B0A9900F0D8FB0590C4F828800A984D
:10140000E0620898206284F837900598206004987C
:10141000A06019986065199818B95B480068A065C4
:1014200001E01998A0651A9860606662A763A4F845
:101430003CA04FF0000B08E0002104F17C0040F8D4
:101440002B100BF1010000F0FF0BBBF1000FF3D0EC
:1014500004F16400189901F0FBFA204600F09EF8B0
:1014600000BF00BF00BFFEF795FE039000BFFFF76F
:1014700069F900BF45480078401C44490870084697
:101480000078012801D101F0DBFE00BFFFF774F9FD
:1014900000BF0398FEF782FE00BF00BF00BF94F8B4
:1014A000370001F0F5FC204601F02EFE204602F048
:1014B0009FFA37480088401C354908803548007835
:1014C000012837D000BF00BF00BFFEF763FE0390C6
:1014D00000BFFFF737F900BF2C480078401E2B49AA
:1014E000087008460078D0B901F0B8FE2A48008894
:1014F00000280BDD00BFFFF73FF900BF0398FEF7A0
:101500004DFE00BF00BF01F06DFE11E000BFFFF710
:1015100033F900BF0398FEF741FE00BF08E000BFAB
:10152000FFF72AF900BF0398FEF738FE00BF00BF9F
:1015300000BFFCE600BF00BF00BFFEF72BFE03901C
:1015400000BFFFF7FFF800BF10480078401E0F49AA
:1015500008700846007808B901F080FE00BFFFF768
:101560000BF900BF0398FEF719FE00BF00BF00BFD4
:10157000FFF776FC00BFDAE640000020685200006A
:10158000BC330020F43200209400002090000020A2
:10159000C4000020480000205400002010B504467C
:1015A0000348006818B1204601490968884710BD02
:1015B0002000002070B504460D46002678480078CB
:1015C000002803DD47F24E10288070BD7548844224
:1015D00003D147F24C102880F7E77348844203D1C7
:1015E00047F24D102880F0E79CB900BF00BFFEF71E
:1015F000D1FD064600BFFFF7A5F800BF6B480468A1
:1016000000BFFFF7B9F800BF3046FEF7C7FD00BFC7
:1016100000BF00BF00BF00BFFEF7BCFD064600BF15
:10162000FFF790F800BF62480078401C60490870DE
:1016300008460078012801D101F002FE00BFFFF743
:101640009BF800BF3046FEF7A9FD00BF00BF00BFFA
:1016500094F8360008282DD2DFE800F004090E10B7
:10166000080A0F11204601F08FFD5EE05DE000BF2B
:10167000204603F00BF958E000BF00BF00BF204632
:1016800003F004F994F83400082810D2DFE800F0E1
:1016900004070508090A0B0600BF00BF08E000BFE9
:1016A00000BF00BF00BF204601F023FB00E000BFE9
:1016B00000BF3AE000BF00BF00BFFEF76BFD06466B
:1016C00000BFFFF73FF800BF39480078401E384997
:1016D000087008460078D0B901F0C0FD3548008890
:1016E00000280BDD00BFFFF747F800BF3046FEF7CC
:1016F00055FD00BF00BF01F075FD11E000BFFFF711
:101700003BF800BF3046FEF749FD00BF08E000BFD0
:10171000FFF732F800BF3046FEF740FD00BF00BFC4
:1017200000BF46F62D6028804FE700BF04F164003B
:1017300001F06CF9204600F041F8204602F070F903
:101740001D480088401E1C490880204602F09AF976
:10175000FF2084F8360000BF00BF00BFFEF71AFD6F
:10176000064600BFFEF7EEFF00BF11480078401E9E
:101770000F4908700846007808B901F06FFD00BFF6
:10178000FEF7FAFF00BF3046FEF708FD00BF00BFBE
:1017900000BF00202880FFF763FB00BF15E70000B3
:1017A00040000020F4320020BC330020E80000207C
:1017B0009000002054000020C400002010B5044612
:1017C0000348006818B1204601490968884710BDE0
:1017D000240000207FB504460D46002600BF00BF50
:1017E000FEF7D8FC064600BFFEF7ACFF00BF1CB1F9
:1017F0001748006884420CD100BFFEF7BDFF00BF50
:101800003046FEF7CBFC00BF00BF47F257102880E0
:101810007FBD00BFFEF7B0FF00BF3046FEF7BEFC45
:1018200000BF00BF0B48007800280BDD00200090AF
:101830000190034602462146CDE90205064800F024
:101840004FFEE5E72946204602F0C8FA00BFDFE771
:10185000E8000020400000205452455310B50446D3
:101860000348006818B1204601490968884710BD3F
:10187000280000202DE9F04780460E4614461D46FC
:101880004FF000098C480078002805DD46F2AE10C4
:1018900028800020BDE8F0871EB1B6F5004F02D1C8
:1018A00000E000BF04E045F6256028800020F1E755
:1018B00000BF0CB10020206000BF00BFFEF76AFC33
:1018C000814600BFFEF73EFF00BF7C480068406CC9
:1018D000B8B37A480068406C401E7849096848648B
:1018E00076480068476C1CB174480068006C206042
:1018F000FEF7B6FF71490968096C401A6F4909681B
:10190000C1F8A4006D480068D0F8A8006B490968C8
:10191000D1F8A410884207D268480068D0F8A40023
:1019200066490968C1F8A80000BFFEF725FF00BF9F
:101930004846FEF733FC00BF00BF00202880384631
:10194000A8E7FFE706F4004068B100BFFEF714FF08
:1019500000BF4846FEF722FC00BF00BF46F2B010B1
:101960002880002096E75648007800280DDD00BF4B
:10197000FEF702FF00BF4846FEF710FC00BF00BFA5
:1019800046F663502880002084E700BF4C4800786A
:10199000401C4B49087008460078012801D101F02D
:1019A0004FFC00BFFEF7E8FE00BF4846FEF7F6FB1F
:1019B00000BF00BF00BF434607220021084601F0D8
:1019C000DDF800BF00BF00BFFEF7E4FB814600BFAB
:1019D000FEF7B8FE00BF3A480078401E384908704C
:1019E0000846007808B901F039FC00BFFEF7C4FED4
:1019F00000BF4846FEF7D2FB00BF00BF00BFFFF7A5
:101A00002FFA00BF00BFFEF7C5FB814600BFFEF7FF
:101A100099FE00BF2948006890F8350020B10128E0
:101A200026D0032834D12CE0FCB124480068006C97
:101A30002060FEF715FF21490968096C401A1F490B
:101A40000968C1F8A4001D480068D0F8A8001B4927
:101A50000968D1F8A410884207D218480068D0F865
:101A6000A40016490968C1F8A8000020288013E0E6
:101A70001CB112480068006C206046F2A910288052
:101A80000AE00CB10020206047F2D920288003E052
:101A900046F62E60288000BF00BF08480068476CEB
:101AA00000BFFEF769FE00BF4846FEF777FB00BFA8
:101AB00000BF3846EEE6000040000020E8000020AD
:101AC000900000202DE9F04705460E4617461C46BB
:101AD0004FF0000A32480078002804DD47F2591020
:101AE0002080BDE8F0871EB946F2D5202080F8E7B7
:101AF0001FB946F2D5202080F3E700BF00BFFEF7F4
:101B000049FB824600BFFEF71DFE00BF0DB9254808
:101B10000568286878B900BFFEF72EFE00BF504662
:101B2000FEF73CFB00BF00BF00203060386047F28A
:101B300052102080D5E795F83C0000F0010078B9FC
:101B400000BFFEF719FE00BF5046FEF727FB00BF9F
:101B500000BF00203060386047F254102080C0E79A
:101B600000BFFEF709FE00BF5046FEF717FB00BF9F
:101B700000BF4FF00008D5F8249003E009F10409F4
:101B800008F10108D9F800000028F7D0C6F8008055
:101B9000A86BA0EB080038600020208000BFA0E701
:101BA00040000020E8000020F0B50446DDE90556BD
:101BB00002EB85004FF0807C071F3846C7F800C055
:101BC000071F38463C60DFF89CC0071F3846C7F83F
:101BD00000C04FF0123C071F3846C7F800C04FF056
:101BE000033C071F3846C7F800C04FF0023C071FF0
:101BF0003846C7F800C0071F38463B60071F384605
:101C000039604FF0113C071F3846C7F800C04FF04D
:101C1000103C071F3846C7F800C04FF0093C071FAB
:101C20003846C7F800C04FF0083C071F3846C7F8D1
:101C300000C04FF0073C071F3846C7F800C04FF000
:101C4000063C071F3846C7F800C04FF0053C071F89
:101C50003846C7F800C04FF0043C071F3846C7F8A5
:101C600000C0F0BD593F00007FB505460C46124844
:101C7000854203D147F25B1020807FBD0F4885422B
:101C800003D147F25C102080F7E70D480078002868
:101C90000BDD002000900190034602462946CDE965
:101CA0000204084800F01CFCE7E72146284602F041
:101CB00033FC00BFE1E70000F4320020BC33002019
:101CC000400000205453555370B52448006810B1AB
:101CD000224800688047FEF7C3FD0446204800689C
:101CE00020490968884215D01D480068D0F898003E
:101CF000201A1B490968C1F8940019480068D0F8F7
:101D00009C0017490968D1F89410084414490968DF
:101D1000C1F89C0013480068C0F89840FEF7E6FC44
:101D200005460F480068D0F8B400A84203D20C481A
:101D30000068C0F8B4500A480068D0F8B8000A49F2
:101D40000968884205D20848006805490968C1F851
:101D5000B80000200449086070BD00003400002075
:101D6000E8000020EC0000208C0000202DE9F0416C
:101D700005460E46144600274D480078002804DD2D
:101D800047F275202080BDE8F0814A48007800289D
:101D900003DD46F663502080F5E736B1022E05D00C
:101DA000042E0AD0082E09D101E000BF00BF1DB9E2
:101DB00047F27E202080E6E704E003E045F6256058
:101DC0002080E0E700BF00BF00BF00BFFEF7E2F9E0
:101DD000074600BFFEF7B6FC00BF36480078401C3F
:101DE0003449087008460078012801D101F028FA2A
:101DF00000BFFEF7C1FC00BF3846FEF7CFF900BFB9
:101E000000BF00BF01202C49096881F83600234635
:101E1000324629462848006802F05AFC2088F0B172
:101E200000BF00BF00BFFEF7B5F9074600BFFEF7D1
:101E300089FC00BF1F480078401E1E4908700846F4
:101E4000007808B901F00AFA00BFFEF795FC00BF60
:101E50003846FEF7A3F900BF00BF00BF93E716485E
:101E6000006801F091F900BF00BF00BFFEF792F9D2
:101E7000074600BFFEF766FC00BF0E480078401E14
:101E80000C4908700846007808B901F0E7F900BF6E
:101E9000FEF772FC00BF3846FEF780F900BF00BFB6
:101EA00000BFFEF7DDFF0020208000BF6BE70000D1
:101EB0004000002090000020E800002010B586B00F
:101EC00000F01EF8FEF7CCFC044605A800210091A6
:101ED000CDE9011403900748007800EB4000064A62
:101EE00002EB800100231A46044800F0F9FA06B01C
:101EF00010BD000076000020903400205449434B70
:101F000010B50348006810B101480068804710BD53
:101F10003800002010B5002400BF00BFFEF73AF9DA
:101F2000044600BFFEF70EFC00BF09480078401CC5
:101F30000749087000BFFEF71FFC00BF2046FEF7F0
:101F40002DF900BF00BFFFF7B9FFFEF717FF10BD67
:101F50004000002001464A1E4FF0E0235A61084A23
:101F6000106820F07F4000BF10601A46126942F0EE
:101F700005021A611A46126942F002021A6170479C
:101F800020ED00E0254A2649264A274A2749284AC3
:101F90002848294A294A2A4A2A4A2B482B482C48A9
:101FA0002C4A2D482D4A2E482E4A2F482F4830487B
:101FB0003048314A314A324A3248334A334A344847
:101FC000344835483548364836483748374A384A1D
:101FD000384A394A39483A483A483B4A3B4A3C4AE7
:101FE0003C483D483D483E493E483F4A3F4A404ABA
:101FF000404A414A414A424A4248434A434A444885
:102000004448454A454A4648464A474A4748484858
:10201000484800BF00BF00BF70470000B05200003A
:1020200018540000B1520000B2520000B452000037
:10203000B8520000BC520000B9520000E452000047
:10204000E5520000E6520000E8520000EA520000AB
:10205000EC520000EE520000F0520000105300005D
:1020600012530000145300001653000018530000D0
:102070001A5300001C53000048530000495300004D
:102080004A5300004C5300004E5300004F530000D1
:1020900050530000525300005453000056530000A8
:1020A000585300005A5300005C5300008C5300004A
:1020B0008D5300008E5300008F530000905300009A
:1020C0009253000094530000BC530000BD53000025
:1020D000BE530000BF530000C0530000C2530000B5
:1020E000C4530000C8530000C9530000CA53000085
:1020F000CB530000CC530000CD530000CE53000062
:10210000CF530000D0530000D2530000D35300003F
:10211000D4530000D6530000D8530000D953000018
:10212000DC53000010540000115400001254000051
:1021300014540000165400000021034A1160034AA1
:1021400011800180704700006000002064000020C2
:102150002DE9F04F85B00446894692469B46DDF84E
:1021600038800020009000BF00BFFEF713F80090F9
:1021700000BFFEF7E7FA00BFBAF1000F0AD0BAF1CC
:10218000010F0DD0BAF5004F05D06FF40040504458
:1021900060B906E000BF206A40EA0900206216E04C
:1021A00000BF206A20EA0900206210E000BFFEF7AD
:1021B000E3FA00BF0098FDF7F1FF00BF00BF45F64E
:1021C0002560A8F80000002005B0BDE8F08F00BF32
:1021D000C4F824B004F1080001900198008968B99E
:1021E00000BFFEF7C9FA00BF0098FDF7D7FF00BF98
:1021F00000BF0020A8F80000206AE5E700BF714892
:102200000078401C6F49087008460078012801D109
:1022100001F016F800BFFEF7AFFA00BF0098FDF717
:10222000BDFF00BF00BF00BF01980768BD6889E01F
:102230007868029095F8880000F00F0003900398EA
:10224000012821D002282ED0042802D0082836D117
:102250000EE0206AD5F8801000EA0106D5F880006B
:10226000B04204D15A463146284600F0AFF863E048
:10227000206AD5F8801000EA010626B15A46314698
:10228000284600F0A3F857E0D5F88000216A20EA3C
:102290000106D5F88000B04204D15A46314628469E
:1022A00000F094F848E0D5F88000216A20EA0106A1
:1022B00026B15A463146284600F088F83CE000BF77
:1022C00000BF00BFFDF766FF009000BFFEF73AFABF
:1022D00000BF3C480078401E3A4908700846007824
:1022E000D0B900F0BBFF3848008800280BDD00BFE4
:1022F000FEF742FA00BF0098FDF750FF00BF00BF95
:1023000000F070FF11E000BFFEF736FA00BF009842
:10231000FDF744FF00BF08E000BFFEF72DFA00BF45
:102320000098FDF73BFF00BF00BF00BF43F6FF2052
:10233000A8F80000002047E700BF029F0FB1BD686A
:1023400000E00025002D7FF473AF00BF00BF00BF89
:10235000FDF720FF009000BFFEF7F4F900BF194819
:102360000078401E174908700846007808B900F048
:1023700075FF00BFFEF700FA00BF0098FDF70EFFE3
:1023800000BF00BF00BF0AF4004008B9FEF768FDB7
:1023900000BF00BFFDF7FEFE009000BFFEF7D2F9C0
:1023A00000BF206A049000BFFEF7E6F900BF009866
:1023B000FDF7F4FE00BF00BF0020A8F8000004985D
:1023C00002E70000900000205400002070B5044691
:1023D0000E46154634342665002060702070E56096
:1023E000A078343C082816D2DFE800F0040508097C
:1023F0000706101100BF00BF00BF0DE000BF204660
:1024000001F0DEFC002084F8360005E000BF042067
:1024100084F8360000E000BF00BF204600F069FCF1
:1024200070BD0000002400BF1DE000BF00BFFDF72D
:10243000B1FE044600BFFEF785F900BF0A480068F8
:10244000401C0949086009480068401C07490860A9
:1024500000BFFEF791F900BF2046FDF79FFE00BFC9
:1024600000BFFEF79DFBE0E73C000020A800002035
:1024700010B58AB0044600200E4908600B200021E8
:102480000591CDE90704069108460B4909680B4AF6
:1024900012680B4B1B68CDE90132CDE903101F20F8
:1024A0000023084A08A100900C48FEF72DFF0AB04F
:1024B00010BD00003C00002014520000105200002B
:1024C0000C5200002524000075432F4F532D49491D
:1024D000492049646C65205461736B00F43200201C
:1024E0002DE9F84F04460D4616461F46DDE90BABB5
:1024F000DDF82890DDF834800020009000BF00BF98
:10250000FDF748FE009000BFFEF71CF900BF2C4805
:1025100000882C49098888423EDA29480088401CF6
:1025200027490880284800880988884203DA244817
:102530000088254908802548006804602348006811
:10254000856022480068C6602048006807821F48EE
:102550000068C0F814901D480068A0F818A01B4837
:102560000068C0F81CB01948006840681749086046
:10257000012017490881174808604860002000F0D2
:1025800087FC1548007818B1134800781349087083
:102590000020A8F8000008E011480088401C1049FD
:1025A000088044F25360A8F8000000BFFEF7E4F88A
:1025B00000BF0098FDF7F2FD00BF00BFBDE8F88F37
:1025C0005400002020520000560000204C00002043
:1025D00090340020BC3300207600002078000020DA
:1025E000580000203EB5594800680068584A811AD2
:1025F000904279D00FDC5749084400283ED0564914
:102600000844A8B155490844002860D054490844FA
:1026100000286AD13FE053480844002850D052496E
:102620000844002862D0514908440028F1D110E044
:1026300002A8464D00902D68EB69444D2D682A8B09
:10264000424D2D686969414D2D68A868FFF780FDEE
:102650007AE002A93D480068C0693C4DCDE900011F
:102660002D682B8B394D2D682A8A384D2D68E968E5
:10267000364D2D68A86800F03BFC65E0334B1B68C5
:10268000DA69324B1B68198B304B1B68986802ABB8
:1026900000F084FE58E002A92C480068C0692B4D68
:1026A000CDE900012D682B8B284D2D682A8A274DF6
:1026B0002D68E968254D2D68A86801F04BFA43E0C4
:1026C00022490968886802A901F088FB3CE01F4B99
:1026D0001B68DA691D4B1B68198B1C4B1B689868BB
:1026E00002AB01F045FC2FE007E02CE01749096838
:1026F000886802A901F010FF26E01D49097801EB66
:1027000041011C4A02EB810000F0C6FD0F48006841
:1027100002AB0021C269184801F02AFC1748006882
:10272000401E164908600846006858B914480068F9
:102730000860FEF795F8044602AB224600211148D6
:1027400001F016FC00E000BF00BF3EBD50000020BD
:102750005449434BADBAB2BE0DF90BFAF2F8F7FF8C
:102760000006F6FF00F7FDF700FFEFFF03FE0FFE88
:102770007800002090340020D8360020E4000020AB
:10278000E0000020A0370020002700BF56E0002610
:1027900052E000BF00BFFDF7FDFC074600BFFDF79C
:1027A000D1FF00BF2648008898B90020254908813C
:1027B0000860486000F07EFB00BFFDF7DDFF00BF52
:1027C0003846FDF7EBFC00BF00BFFEF749FB0126D2
:1027D00032E000BFFDF7D0FF00BF3846FDF7DEFC5A
:1027E00000BF00BFFEF73CF80546FFF7FBFEFEF713
:1027F00037F8441B14480068A04201D21248046014
:1028000000BF00BFFDF7C6FC074600BFFDF79AFFFB
:1028100000BF0E48006840680C49086008480088FE
:10282000401E0749088000BFFDF7A6FF00BF3846DD
:10283000FDF7B4FC00BF00BF002EAAD0A7E7000040
:1028400054000020903400205C0000205000002044
:10285000F0B589B00546002031490880314800684C
:1028600020B944F25260288009B0F0BD2E4800889B
:10287000022803DA44F254602880F5E700202B494F
:102880000860284804682646203600270CE02848BF
:1028900020600020A060E06020826061208366608C
:1028A00020342036781C87B21F4800888742EEDB30
:1028B000203C1C48066866601E4806601E4806608C
:1028C00000201E4908801E4908801E48006818B96B
:1028D00044F255602880C7E71B4800681B49096817
:1028E000884203D244F256602880BDE703200021CD
:1028F0000591CDE90705069113480068144A12684E
:10290000104B1B68CDE90301CDE9013200910B4664
:10291000104A11A11748FEF7F7FC00BFA4E700001A
:10292000580000201C520000205200005C000020D3
:102930004E4F4E454C000020500000205400002017
:10294000560000202852000030520000685200005B
:102950002C5200008927000075432F4F532D494901
:102960004920495352205175657565205461736B38
:1029700000000000BC3300200021034A1160034A1C
:102980001180018070470000680000206C0000206A
:1029900070B501461A4D2D681DB945F21E750D80A2
:1029A00070BD184D2D881DB945F21D750D80F7E7D6
:1029B000134D28682A681032124D2D886D1EACB256
:1029C000002308E00260002545600581C5601030E5
:1029D00010325D1CABB2A342F4DB002505604560FC
:1029E0000581C560064D2D68074E3560054D2D8863
:1029F000B5800025F58035810D8000BFD0E700004F
:102A00004C520000445200008434002010B50146AE
:102A100048894B89002B17DD0A680C4B1B68136033
:102A20000A4C4B6823602346DB884C891B1B074CF0
:102A3000E38023469B884C892344044CA3800023D5
:102A40004B818B810B604B6010BD000084340020F3
:102A50000181002242818281026042607047000051
:102A60002DE9F0410D46DDE90674B0F80AC0B0F872
:102A70000880C44505DB46F2935CA4F800C0BDE8BD
:102A8000F081DFF8DCC0BCF804C0BCF1000F04D159
:102A900045F21D7CA4F800C0F1E7DFF8C4C0DCF803
:102AA0000010DFF8BC80D1F800C0C8F800C0C446F0
:102AB000BCF804C0ACF1010CA8F804C0C446BCF8D2
:102AC00006C00CF1010CA8F806C0C446BCF808C04A
:102AD000B8F80680C44507DADFF884C0BCF806C041
:102AE000DFF87C80A8F808C0B0F80AC0BCF1000F7D
:102AF0000AD1016041604FF0010CA0F80AC04FF00C
:102B0000000CC1F800C017E003F0100CBCF1000F7E
:102B100007D10668316001604FF0000CC1F800C0B9
:102B200004E0D0F804C0C1F800C04160B0F80AC0A9
:102B30000CF1010CA0F80AC0B0F80CC0B0F80A8083
:102B4000C44503DAB0F80AC0A0F80CC04D600A8191
:102B5000CF604FF0000CA4F800C000BF8FE700006A
:102B6000843400200021034A1160034A118001804F
:102B70007047000070000020740000202DE9F04133
:102B800005460C4616461F461548006880F8346016
:102B900000201349096881F835003946104800685B
:102BA00000F00AFF6CB104F10808EC60012229462C
:102BB0000B48006800F016F82946404600F066F819
:102BC00006E0002006490968C887054909680863C6
:102BD00003480168204600F019F8BDE8F0810000C4
:102BE000E800002010B5C287016300230AE000243A
:102BF0004C600C600C614C610C83CC6188602031AE
:102C00005C1CA3B29342F2DB10BD000030B548B1AA
:102C10004568C1F8C45000F10804226893681D6A31
:102C2000C56113E091F83450022D02D0072D08D170
:102C300003E007A5C1F8C45007E007A5C1F8C450D8
:102C400003E008A5C1F8C45000BF00BF30BD0000BC
:102C50005461736B205100005461736B2053656D98
:102C6000000000002000000030B507A5C1F8C450E6
:102C700000F1080422681AB193681D6AC56101E079
:102C800001A5C56130BD000020000000F0B58E68D0
:102C900096F8375007893FB90127078100274F6011
:102CA0000F600160416023E007897F1C0781026893
:102CB00006E0946894F83770AF4200DD02E0526895
:102CC000002AF6D100BF32B900274F6043680B607D
:102CD000596041600CE017682FB9116000270F6040
:102CE0004A60016004E013680B604A60596011603B
:102CF000F0BD2DE9F0410446256BE68F0AE0D5F8DA
:102D00000C8008F108072946384600F00AF82035FB
:102D1000701E86B2002EF2DC0020E0872063BDE842
:102D2000F08110B50489012C03D1002404604460B3
:102D300011E00C6824B94A680024146002600AE0BB
:102D40004C6824B90B6800245C60436003E00B68A6
:102D50004A685A6013600489641E048100244C6030
:102D60000C6010BD2DE9F84306460C461746984600
:102D7000089D94F83600082850D2DFE800F00405DA
:102D8000080906072B2C00BF00BF00BF47E000BFAB
:102D900094F83400032807D143463A46214630468A
:102DA000009500F03FF803E0E765A4F86080256433
:102DB00036B12046FFF79DFF21463046FFF754FF0E
:102DC000204600F0FDFF00203434A070607004F84D
:102DD000340924E000BF94F83400032807D14346A7
:102DE0003A4621463046009500F01CF803E0E765BE
:102DF000A4F860802564204601F048FD36B12046E5
:102E0000FFF777FF21463046FFF72EFF04203434CA
:102E1000A0700020607004F8340900E000BF00BF1B
:102E2000BDE8F883F0B50446059E086BCD8F0AE037
:102E3000C768A74204D1046142610383C66104E00C
:102E400020306F1EBDB2002DF2DC00BFF0BD0000CF
:102E500070B50025074C03E005F12000C5B2241D24
:102E600020680028F8D02068FDF79FF92844C5B2F3
:102E7000284670BD1C000020002004E00021034A09
:102E800042F82010401C0028F8D070471C00002099
:102E900030B5420900F01F030121C3F11F04A14016
:102EA000034C54F822400C43014D45F8224030BDFC
:102EB0001C00002030B5420900F01F030121C3F1BE
:102EC0001F04A140034C54F822408C43014D45F8A7
:102ED000224030BD1C0000200021034A1160034A3B
:102EE00011800180704700007C00002080000020DD
:102EF0002DE9F04F85B007468A4693461C460020D0
:102F0000029000BF00BF00BFFDF744F9029000BF70
:102F1000FDF718FC00BF56480078401C5449087063
:102F200008460078012801D100F08AF900BFFDF7BA
:102F300023FC00BF0298FDF731F900BF00BF00BFBE
:102F400007F10806308900284CD104F0100010B9B0
:102F50004FF0000801E04FF01008DDE90E01434694
:102F60005A46CDE90001514607F12000FFF778FDF0
:102F700000BF00BF00BFFDF70DF9029000BFFDF7D5
:102F8000E1FB00BF3A480078401E39490870084606
:102F90000078D0B900F062F93648008800280BDDCF
:102FA00000BFFDF7E9FB00BF0298FDF7F7F800BF8F
:102FB00000BF00F017F911E000BFFDF7DDFB00BF17
:102FC0000298FDF7EBF800BF08E000BFFDF7D4FB67
:102FD00000BF0298FDF7E2F800BF00BF00BF05B0D8
:102FE000BDE8F08F04F4007008B1358900E00125D8
:102FF000D6F8009011E0D9F808000390D9F8040041
:1030000004900E985B465246009038460399FFF7AD
:10301000A9FEDDF81090681E85B2002DEBD100BF2F
:1030200000BF00BFFDF7B6F8029000BFFDF78AFBB6
:1030300000BF0F480078401E0D4908700846007810
:1030400008B900F00BF900BFFDF796FB00BF02982E
:10305000FDF7A4F800BF00BF00BF04F4004008B9AA
:10306000FDF7FEFE00210F98018000BFB7E70000CA
:10307000900000205400002000210AE001EB4102F2
:10308000054B03EB820000220281026042604A1C71
:10309000D1B22029F2D370479034002010B50446F5
:1030A00094F83700FFF7F4FE94F8370005490978E3
:1030B000884203D1204600F027F802E0204600F0C5
:1030C00003F810BD7600002010B590F8373003EB00
:1030D00043030C4C04EB83010B893BB901230B81A7
:1030E0000023C36003610860486009E00B895B1C32
:1030F0000B810B68C360002303610A6810610860DC
:1031000010BD00009034002010B590F8373003EB6C
:1031100043030B4C04EB83010B893BB901230B8167
:103120000023C36003610860486008E00B895B1CF2
:103130000B810023C3604A680261D060486010BD03
:103140009034002010B501460C8924B1012C03D025
:10315000022C0CD101E000BF14E008684A6802614B
:103160000024C4601461D0600A6048600AE0086806
:103170004A68C36800241C61C4600261D0600B60AF
:10318000486000BF00BF10BD2DE9F041054695F82D
:10319000370000EB4000124901EB80042F69EE6814
:1031A00087B946B9002020812060606095F837001B
:1031B000FFF780FE0EE02089401E20810020306154
:1031C000266007E02089401E2081FE600EB96760FE
:1031D00000E0376100202861E860BDE8F081000070
:1031E0009034002010B5002400BFFCF7D3FF044644
:1031F00000BF00200D4908700D480E4908600846C0
:103200000068D0F89000401C0968C1F890000A4896
:103210000068401C084908604FF08050074908606A
:1032200000BF2046FCF7BAFF00BF10BD77000020AA
:10323000BC330020EC000020BC00002004ED00E0C6
:1032400010B504480078012803D1FDF709FB0249B5
:10325000086010BD900000208400002010B50A48CE
:10326000007880B9FDF7FCFA08490968441A084853
:103270000068A04201D20648046006480068A042E7
:1032800001D20448046010BD90000020840000209A
:10329000880000208C00002070B5054600263548C7
:1032A0000078012800D070BD00BF00BFFCF772FF9E
:1032B000064600BFFDF746FA00BF2C684CB900BFB8
:1032C000FDF75AFA00BF3046FCF768FF00BF00BFA9
:1032D000E9E72948844209D100BFFDF74DFA00BF54
:1032E0003046FCF75BFF00BF00BFDCE7A06D10B10C
:1032F000A06D401EA065A06D48B100BFFDF73CFA6F
:1033000000BF3046FCF74AFF00BF00BFCBE728896B
:10331000022809DA00BFFDF72FFA00BF3046FCF79C
:103320003DFF00BF00BFBEE714480078002809DD5C
:1033300000BFFDF721FA00BF3046FCF72FFF00BFAA
:1033400000BFB0E72846FFF7FDFE2C68606D18B996
:103350000B480068A06501E0606DA06500BFFDF747
:103360000BFA00BF3046FCF719FF00BF00BF00BFDB
:1033700099E7000098000020F4320020900000201F
:10338000940000200021034A1160034A118001804B
:10339000704700009C000020A00000202DE9FF5F86
:1033A0000446884691461D460020019000BF00BF9C
:1033B000FCF7F0FE019000BFFDF7C4F900BF04F177
:1033C00008073889002857D10420012804D0022892
:1033D00016D004283AD127E0206AFF280FD100BF79
:1033E000FDF7CAF900BF0198FCF7D8FE00BF00BF87
:1033F00046F6C5502880002004B0BDE8F09F26E0C6
:103400004FF6FF71206A88420DD100BFFDF7B4F975
:1034100000BF0198FCF7C2FE00BF00BF46F6C550D2
:1034200028800020E8E712E0206A401C68B900BF4D
:10343000FDF7A2F900BF0198FCF7B0FE00BF00BF86
:1034400046F6C55028800020D6E700E000BF00BF48
:10345000206A401C2062D4F820A0C4F8249000BF49
:10346000FDF78AF900BF0198FCF798FE00BF00BF86
:10347000002028805046BFE700BF2D480078401C40
:103480002B49087008460078012801D1FFF7D8FEC3
:1034900000BFFDF771F900BF0198FCF77FFE00BF88
:1034A00000BF00BF08F4007008B13E8900E00126AB
:1034B000D7F800B011E0DBF808000290DBF8040058
:1034C000039000231A46CDF8009020460299FFF79A
:1034D00049FCDDF80CB0701E86B2002EEBD1D4F89A
:1034E00020A000BF00BF00BFFCF754FE019000BF4A
:1034F000FDF728F900BF0E480078401E0C490870FF
:103500000846007808B9FFF7A9FE00BFFDF734F9B7
:1035100000BF0198FCF742FE00BF00BF00BF08F4E7
:10352000004008B9FDF79CFC00202880504663E766
:103530009000002086B00020009000BF06E0D9492E
:103540000968480001AA0021FEF710FCD64800785F
:103550000128F4D101A8FDF799FD0027D3480068A0
:10356000D0490968884205D9D0480068CD49096822
:10357000B0FBF1F727B9CD4800680A21B0FBF1F79D
:103580008EE1FDF76DF98246FDF7C6F8C84908607F
:1035900000BF00BFFCF7FEFD009000BFFDF7D2F8B2
:1035A00000BFC4480068C44908600020C1490860E1
:1035B00000BFFDF7E1F800BF0098FCF7EFFD00BF8A
:1035C00000BFBE480068BC490968884248D9BB486A
:1035D0000068BB49884205D242F210700390012076
:1035E000029023E0B5480068B649884205D24FF4FE
:1035F0007A7003900A20029018E0B0480068B2493F
:10360000884203D26420039002900FE0AB48006828
:10361000AE49884205D20A2003904FF47A70029096
:1036200004E00120039042F210700290A348016868
:103630000298B1FBF0F9A049039809684843B0FB30
:10364000F9F042F21071081AA1490880A1480088D7
:103650000988884208DA9E4800889E49088003E06D
:1036600042F210709A490880FDF744FE002500BF21
:1036700000BFFCF78FFD009000BFFDF763F800BFAF
:103680009548046800BFFDF777F800BF0098FCF785
:1036900085FD00BF00BF72E000BF00BF00BFFCF7A8
:1036A00079FD009000BFFDF74DF800BF8B48007812
:1036B000401C8A49087008460078012801D1FFF7AC
:1036C000BFFD00BFFDF758F800BF0098FCF766FD8E
:1036D00000BF00BF00BF54F89C0F6060002044F89A
:1036E0009C0900BF00BF00BFFCF754FD009000BF65
:1036F000FDF728F800BF79480078401E7749087028
:1037000008460078D0B9FFF7A9FD75480088002861
:103710000BDD00BFFDF730F800BF0098FCF73EFD61
:1037200000BF00BFFFF75EFD11E000BFFDF724F80A
:1037300000BF0098FCF732FD00BF08E000BFFDF7B6
:103740001BF800BF0098FCF729FD00BF00BF00BFB9
:10375000D4F8A000054400BF00BFFCF71BFD00909B
:1037600000BFFCF7EFFF00BFD4F8C04000BFFDF77B
:1037700003F800BF0098FCF711FD00BF00BF002C4C
:103780008AD145B34E48854205D242F21070059069
:103790004FF0010B1BE04B48854205D24FF47A7085
:1037A00005904FF00A0B12E04748854203D264208F
:1037B000059083460BE04548854204D20A200590D7
:1037C0004FF47A7B03E00120059042F2107BB5FBB9
:1037D000FBF0049003E0002005900120049000BF5E
:1037E00000BFFCF7D7FC009000BFFCF7ABFF00BFA9
:1037F0003948046800BFFCF7BFFF00BF0098FCF722
:10380000CDFC00BF00BF2FE0D4F8A00005994843CD
:103810000499B0FBF1F086B242F21070864200D9F2
:103820000646A4F88C60B4F88E00B04201DAA4F821
:103830008E6001AB04F1AC02111D2046FEF742F987
:1038400000BF00BFFCF7A6FC009000BFFCF77AFFAA
:1038500000BFD4F8C04000BFFCF78EFF00BF009847
:10386000FCF79CFC00BF00BF002CCDD11D480078A8
:10387000012805D100201B49087001A8FDF706FCAE
:10388000FCF7EEFFA0EB0A0817480068404502D29B
:103890001548C0F8008001AA00213846FEF766FAF4
:1038A0006FE6000054520000B40000206C5200008B
:1038B00044000020A8000020B0000020AC00002040
:1038C000801A060000093D00005A62020084D717E2
:1038D000A4000020A6000020C000002090000020CE
:1038E00054000020A2000020B800002010B58AB0CB
:1038F000044600201F4908601F4908601F490860EE
:103900001F4908701F4908701F48006820B946F613
:103910002B6020800AB010BD1C4800681C49096853
:10392000884203D246F62C602080F3E719480078DD
:103930001F2803D346F62A602080EBE703200021EE
:103940000591CDE907040691084610490968124A15
:1039500012680D4B1B68CDE90132CDE903100D480B
:10396000007800230D4A0EA100901248FDF7CCFC10
:1039700000BFCFE7A8000020B0000020AC0000206E
:10398000B4000020A2000020585200006052000045
:1039900068520000505200005C52000035350000B3
:1039A00075432F4F532D4949492053746174205456
:1039B00061736B001036002038B504460D4685B1A2
:1039C0006B4602222946204600F082FEBDF8000028
:1039D00018B9032084F8360006E0022084F8360087
:1039E00002E0022084F836002046FFF7CDFB38BD08
:1039F0000021C0F8BC100949096819B90021C0F8B4
:103A0000C01007E005490968C0F8C01003490968FB
:103A1000C1F8BC000149086070470000C0000020E8
:103A2000D0F8BC20D0F8C0104AB90D4B196011B1C4
:103A30000023C1F8BC300023C0F8C0300FE029B922
:103A40000023C2F8C030C0F8BC3008E0C2F8C01093
:103A5000C1F8BC200023C0F8C030C0F8BC307047AB
:103A6000C00000200021044A1160044A1180044A69
:103A70001160018070470000C0000020C4000020D9
:103A8000BC00002070B5044600202060A06060608B
:103A9000E06020616061A061E0612BA020620020F5
:103AA0006062A062E0622063E0872064E065A4F8C1
:103AB0006000002104F16400FEF7CAFF002044F812
:103AC000740F6060E060A0822061743C002506E015
:103AD000002104F17C0040F82510681CC5B2002DBF
:103AE000F6D000203434206120676067606084F87D
:103AF0005600E067A06720814FF000406061002021
:103B0000A061E06120626062A4F85800A4F85A0045
:103B1000E0652066FCF7A4FE064666660020A06607
:103B2000C4F88000C4F8840020706070A070202069
:103B3000E0700020C4F88800C4F88C0004A0C4F829
:103B40009000343C70BD00003F5461736B00000076
:103B5000200000002DE9FC4704460F469046994698
:103B6000DDE90A654FF0000A00BF00BF00BFFCF7A7
:103B700011FB824600BFFCF7E5FD00BF8D480078D1
:103B8000401C8C49087008460078012801D1FFF7D5
:103B900057FB00BFFCF7F0FD00BF5046FCF7FEFAF4
:103BA00000BF00BF00BF0CB9834804680020288014
:103BB00094F8360008287CD2DFE800F00405484974
:103BC00006074A4B00BF00BF00BF4B46424639467E
:103BD00004F16400CDE90065FEF742FF00BF00BFBD
:103BE00000BFFCF7D7FA824600BFFCF7ABFD00BF71
:103BF00070480078401E6F49087008460078D0B9B8
:103C0000FFF72CFB6D48008800280BDD00BFFCF798
:103C1000B3FD00BF5046FCF7C1FA00BF00BFFFF77D
:103C2000E1FA11E000BFFCF7A7FD00BF5046FCF72A
:103C3000B5FA00BF08E000BFFCF79EFD00BF50468C
:103C4000FCF7ACFA00BF00BF00BFAFE000BF00BF91
:103C500000BF94F8340002282CD143463A4621464E
:103C600000200096FFF77EF800BF00BF00BFFCF702
:103C700091FA824600BFFCF765FD00BF4D48007811
:103C8000401E4C4908700846007808B9FFF7E6FA6C
:103C900000BFFCF771FD00BF5046FCF77FFA00BF84
:103CA00000BF00BF09F40040002843D1FDF7D8F859
:103CB00040E040E04B464246394604F16400CDE91D
:103CC0000065FEF7CDFE00BF00BF00BFFCF762FA43
:103CD000824600BFFCF736FD00BF36480078401E24
:103CE0003449087008460078D0B9FFF7B7FA33486E
:103CF000008800280BDD00BFFCF73EFD00BF5046EA
:103D0000FCF74CFA00BF00BFFFF76CFA11E000BFF0
:103D1000FCF732FD00BF5046FCF740FA00BF08E058
:103D200000BFFCF729FD00BF5046FCF737FA00BF83
:103D300000BF00BF3AE000BF00BF00BFFCF72AFA97
:103D4000824600BFFCF7FEFC00BF1A480078401E08
:103D50001849087008460078D0B9FFF77FFA17486D
:103D6000008800280BDD00BFFCF706FD00BF5046B1
:103D7000FCF714FA00BF00BFFFF734FA11E000BFF0
:103D8000FCF7FAFC00BF5046FCF708FA00BF08E059
:103D900000BFFCF7F1FC00BF5046FCF7FFF900BF85
:103DA00000BF00BF46F62D60288000BF00BFBDE801
:103DB000FC87000090000020E80000205400002054
:103DC00010B50446204600F061FD94F8360000F07E
:103DD000040010B92046FFF761F910BD70B5044624
:103DE0000D46002600BF00BFFCF7D4F9064600BF11
:103DF000FCF7A8FC00BF0020288094F836000828B3
:103E00007ED2DFE800F00405060714566A8000BF82
:103E100000BF00BF00BFFCF7AFFC00BF3046FCF79F
:103E2000BDF900BF00BF47F2531028808CE000BFEF
:103E300048480078401C4749087008460078012827
:103E400001D1FFF7FDF900BFFCF796FC00BF30463B
:103E5000FCF7A4F900BF00BF00BF14F88A0F401E92
:103E6000207014F88A0928B9002084F8360020460A
:103E7000FFF7A6FF00BF00BF00BFFCF78BF90646A7
:103E800000BFFCF75FFC00BF32480078401E31499C
:103E900008700846007808B9FFF7E0F900BFFCF7A2
:103EA0006BFC00BF3046FCF779F900BF00BF00BFD4
:103EB0004AE014F88A0F401E207014F88A0910B9DD
:103EC000012084F8360000BFFCF756FC00BF3046E6
:103ED000FCF764F900BF00BF36E014F88A0F401EFB
:103EE000207014F88A0910B9022084F8360000BF47
:103EF000FCF742FC00BF3046FCF750F900BF00E081
:103F000015E000BF20E014F88A0F401E207014F85E
:103F10008A0910B9032084F8360000BFFCF72CFC96
:103F200000BF3046FCF73AF900BF00BF0CE000BF0D
:103F3000FCF722FC00BF3046FCF730F900BF00BFA1
:103F400046F62D60288070BD00BFFCF789FF00BFDA
:103F5000F9E700009000002008B504480068FDF76C
:103F60007DFC69460020FDF725FB08BDE800002028
:103F70002DE9F8430446884617461D464FF00009D0
:103F800000BF00BF00BFFCF705F9814600BFFCF78A
:103F9000D9FB00BFFB480078401CFA49087008466E
:103FA0000078012801D1FFF74BF900BFFCF7E4FBD3
:103FB00000BF4846FCF7F2F800BF00BF00BF0CB9D5
:103FC000F148046827640020288094F83600082807
:103FD0007AD2DFE800F00405FEFD0607FCFB00BF17
:103FE00000BF00BF0420012804D0022843D00428C9
:103FF0006BD184E0606CFF283CD100BF00BF00BFE4
:10400000FCF7C8F8814600BFFCF79CFB00BFDD4809
:104010000078401EDB49087008460078D0B9FFF7E9
:104020001DF9DA48008800280BDD00BFFCF7A4FB6F
:1040300000BF4846FCF7B2F800BF00BFFFF7D2F858
:1040400011E000BFFCF798FB00BF4846FCF7A6F85C
:1040500000BF08E000BFFCF78FFB00BF4846FCF73D
:104060009DF800BF00BF00BF46F6C5502880002065
:10407000BDE8F88385E04FF6FF71606C88423DD162
:1040800000BF00BF00BFFCF785F8814600BFFCF70A
:1040900059FB00BFBB480078401EBA49087008466B
:1040A0000078E0B9FFF7DAF8B848008800280DDD9D
:1040B00000BFFCF761FB00BF4846FCF76FF800BF8C
:1040C00000BFFFF78FF813E0E2E159E000BFFCF713
:1040D00053FB00BF4846FCF761F800BF08E000BF93
:1040E000FCF74AFB00BF4846FCF758F800BF00BF8A
:1040F00000BF46F6C55028800020B9E741E0606C5B
:10410000401CD8BB00BF00BF00BFFCF743F881468E
:1041100000BFFCF717FB00BF9A480078401E994982
:10412000087008460078D0B9FFF798F897480088DB
:1041300000280BDD00BFFCF71FFB00BF4846FCF763
:104140002DF800BF00BFFFF74DF811E000BFFCF7EE
:1041500013FB00BF4846FCF721F800BF08E000BF92
:10416000FCF70AFB00BF4846FCF718F800BF00BF89
:1041700000BF46F6C5502880002079E7FFE700E041
:1041800000BF00BF606C401C6064666C00BF00BF75
:1041900000BFFBF7FFFF814600BFFCF7D3FA00BF6B
:1041A00078480078401E7749087008460078F8B9CA
:1041B000FFF754F875480088002810DD00BFFCF7B1
:1041C000DBFA00BF4846FBF7E9FF03E01EE01CE016
:1041D0001AE018E000BF00BFFFF704F811E000BFCD
:1041E000FCF7CAFA00BF4846FBF7D8FF00BF08E05B
:1041F00000BFFCF7C1FA00BF4846FBF7CFFF00BF86
:1042000000BF00BF80E100BF00BF00BF94F83400D2
:1042100007282CD100231A46214618460097FEF79E
:10422000A1FD666C00BF00BF00BFFBF7B3FF814676
:1042300000BFFCF787FA00BF52480078401E514982
:1042400008700846007808B9FFF708F800BFFCF7C7
:1042500093FA00BF4846FBF7A1FF00BF00BF00BFB5
:1042600008F40040002801D1FCF7FAFD0FE104201A
:10427000012804D0022842D0042872D189E0606C61
:10428000FF283BD100BF00BF00BFFBF783FF814683
:1042900000BFFCF757FA00BF3A480078401E394982
:1042A000087008460078D0B9FEF7D8FF3748008874
:1042B00000280BDD00BFFCF75FFA00BF4846FBF7A4
:1042C0006DFF00BF00BFFEF78DFF11E000BFFCF7E0
:1042D00053FA00BF4846FBF761FF00BF08E000BF8C
:1042E000FCF74AFA00BF4846FBF758FF00BF00BF83
:1042F00000BF46F6C55028800020B9E68BE04FF697
:10430000FF71606C884243D100BF00BF00BFFBF764
:1043100041FF814600BFFCF715FA00BF194800783D
:10432000401E1849087008460078D8B9FEF796FF75
:104330001648008800280BDD00BFFCF71DFA00BFFF
:104340004846FBF72BFF00BF00BFFEF74BFF12E014
:1043500000BFFCF711FA00BF4846FBF71FFF00BF84
:1043600009E057E000BFFCF707FA00BF4846FBF73B
:1043700015FF00BF00BF00BF46F6C55028800020D3
:1043800076E6000090000020E800002054000020A5
:1043900041E0606C401CD8BB00BF00BF00BFFBF712
:1043A000F9FE814600BFFCF7CDF900BF5848007800
:1043B000401E5749087008460078D0B9FEF74EFFF6
:1043C0005448008800280BDD00BFFCF7D5F900BF7A
:1043D0004846FBF7E3FE00BF00BFFEF703FF11E016
:1043E00000BFFCF7C9F900BF4846FBF7D7FE00BF86
:1043F00008E000BFFCF7C0F900BF4846FBF7CEFE5F
:1044000000BF00BF00BF46F6C550288000202FE641
:10441000FFE700E000BF00BF606C401C6064666C9A
:1044200000BF00BF00BFFBF7B5FE814600BFFCF731
:1044300089F900BF36480078401E354908700846A3
:104440000078D0B9FEF70AFF3248008800280BDD5B
:1044500000BFFCF791F900BF4846FBF79FFE00BF85
:1044600000BFFEF7BFFE11E000BFFCF785F900BFFB
:104470004846FBF793FE00BF08E000BFFCF77CF95D
:1044800000BF4846FBF78AFE00BF00BF00BF3BE00D
:1044900000BF00BF00BFFBF77DFE814600BFFCF7F9
:1044A00051F900BF1A480078401E194908700846A3
:1044B0000078D0B9FEF7D2FE1648008800280BDD40
:1044C00000BFFCF759F900BF4846FBF767FE00BF85
:1044D00000BFFEF787FE11E000BFFCF74DF900BFFB
:1044E0004846FBF75BFE00BF08E000BFFCF744F95D
:1044F00000BF4846FBF752FE00BF00BF00BF46F6B4
:104500002D602880002600BF00BF3046B0E50000C7
:10451000900000205400002070B504460D4600268F
:1045200000BF00BFFBF736FE064600BFFCF70AF9E6
:1045300000BF0CB95A48046859480068844210D139
:104540005848007800280CDD00BFFCF715F900BFC3
:104550003046FBF723FE00BF00BF46F663502880BD
:1045600070BD0020288094F83600082873D2DFE858
:1045700000F0044252627374757600BF49480078B7
:10458000401C4849087008460078012801D1FEF710
:1045900057FE00BFFCF7F0F800BF3046FBF7FEFD0A
:1045A00000BF00BF00BF042084F83600012084F85B
:1045B0008A002046FEF7E8FD00BF00BF00BFFBF702
:1045C000E9FD064600BFFCF7BDF800BF354800789E
:1045D000401E344908700846007808B9FEF73EFED0
:1045E00000BFFCF7C9F800BF3046FBF7D7FD00BF9E
:1045F00000BF00BF4FE0052084F83600012084F89A
:104600008A0000BFFCF7B8F800BF3046FBF7C6FDD4
:1046100000BF00BF3FE0062084F83600012084F888
:104620008A0000BFFCF7A8F800BF3046FBF7B6FDD4
:1046300000BF00BF2FE0072084F83600012084F877
:104640008A0000BFFCF798F800BF3046FBF7A6FDD4
:1046500000BF00BF1FE011E000BF00BF00BF94F823
:104660008A00401C84F88A0000BFFCF785F800BF70
:104670003046FBF793FD00BF00BF0CE000BFFCF726
:104680007BF800BF3046FBF789FD00BF00BF46F650
:104690002D60288064E700BFFCF7E2FB00BF5FE706
:1046A000E800002090000020002108E0064A02EB0C
:1046B000C100002202608280C2804A1C91B2034A7B
:1046C00012889142F2DB7047E42F002084520000F0
:1046D0002DE9F04F0C4616461D46042E1ED1DFF87C
:1046E000A091D9F80090A4EB0909A9F1010313F5F1
:1046F000803F0DD94FF00009C0F84C90C0F85090A1
:10470000C0F81C9047F27E29A5F80090BDE8F08F14
:10471000C46403F10109C0F850903FE084B3082E4F
:1047200025D1D0F8489009EB0407DFF85491D9F867
:104730000090A7EB0909A9F10103A34201D2C764C4
:1047400006E0DFF83C91D9F80090A144C0F84C9005
:10475000DFF82CA1D0F84C90DAF800A0A9EB0A09F8
:10476000C0F85090D0F84C90C0F8489016E0DFF8B0
:104770001091D9F80090A144C0F84C9004650DE068
:10478000FFE74FF00009C0F84C90C0F85090C0F817
:104790001C9047F27E29A5F80090B7E7DFF8E4A067
:1047A000BAF800A0D0F84C90B9FBFAFB0AFB1B99B1
:1047B0001FFA89F8DFF8D09009EBC802B2F804902C
:1047C000B9F1000F0BD14FF00009C0F81490C0F8F8
:1047D000189010604FF00109A2F804903EE01168B3
:1047E00034E0DFF89CA0D1F84C90DAF800A0A9EBF7
:1047F0000A09C1F85090D0F85090D1F850A0D14596
:104800000ED9D1F81490B9F1000F01D049691DE01B
:104810004FF00009C0F8149081614861002115E053
:10482000D1F81890B9F1000F07D14FF00009C0F886
:10483000189041618861106007E0D1F818C0C0F895
:1048400018C04161CCF81400886100210029C8D14A
:10485000B2F8049009F10109A2F80490B2F80690A8
:10486000B2F804A0D14503DAB2F80490A2F8069099
:10487000C2614FF00009A5F8009000BF46E70000B4
:10488000C800002084520000E42F002010B5C26947
:10489000BAB1002404651468844205D141691160ED
:1048A00039B100248C6104E0816943694B6103B133
:1048B0009961002444618461C461C4649488641E65
:1048C000948010BD002006E0054A02EBC0010022E2
:1048D000CA80421C90B2034A12889042F4DB7047AF
:1048E000E42F0020845200002DE9F05F4FF0000B10
:1048F00000BF00BF00BFFBF74DFC834600BFFBF7C6
:1049000021FF00BF7A480078401C794908700846AA
:104910000078012801D1FEF793FC00BFFBF72CFFC4
:1049200000BF5846FBF73AFC00BF00BF00BFFBF7D3
:1049300097FF05466F480068401C6E4908600846AE
:1049400000686D490988B0FBF1F201FB12001FFA03
:1049500080FA6A4800EBCA08D8F80040002782E0D5
:10496000002C7FD0D4F8149094F83600082875D223
:10497000DFE800F00408051B063D075000BF00BF3C
:1049800000BF6CE05B49E06C0968401A206559493A
:10499000E06C0968884206D1002084F83600204681
:1049A000FFF70EFA00E0012759E05249E06C096870
:1049B000401A20654F49E06C0968884215D10020F3
:1049C000E065A4F86000FBF74BFF20642046FEF78B
:1049D00090F92046FFF7F4F900203434A07003204A
:1049E0006070002004F8340900E0012737E04149F5
:1049F000E06C0968401A20653E49E06C096888420D
:104A000006D1042084F836002046FFF73FFF00E07F
:104A1000012724E03749E06C0968401A20653549D0
:104A2000E06C0968884217D10020E065A4F86000B6
:104A3000FBF716FF20642046FEF75BF92046FFF7E0
:104A400025FF04203434A07003206070002004F897
:104A5000340902E006E001E0012700E000BF00BFEA
:104A60004C4600E00127002F3FF47AAFFBF7F8FE39
:104A7000461B23480068B04201D22148066000BFAF
:104A800000BF00BFFBF786FB834600BFFBF75AFE63
:104A900000BF17480078401E154908700846007886
:104AA000D0B9FEF7DBFB1748008800280BDD00BFFC
:104AB000FBF762FE00BF5846FBF770FB00BF00BF6C
:104AC000FEF790FB11E000BFFBF756FE00BF584613
:104AD000FBF764FB00BF08E000BFFBF74DFE00BF23
:104AE0005846FBF75BFB00BF00BF00BFBDE8F09F6F
:104AF00090000020C800002084520000E42F002015
:104B0000CC000020540000201CB500BF0EE001AB1B
:104B10006A4600210846FCF7ADFEBDF8040028B93E
:104B200003480078012801D1FFF7DEFEEFE700001F
:104B30004800002010B58AB0044600201D490860D6
:104B40001D490860FFF7B0FD1C48006820B947F216
:104B5000122020800AB010BD194800681949096860
:104B6000884203D247F213202080F3E716480078EA
:104B70001F2803D347F211202080EBE70B200021F0
:104B800005910A46CDE9070406910D4800680F49D2
:104B900009680A4B1B68CDE90131CDE903020A48D7
:104BA000007800230A4A0BA100900F48FCF7ACFBE9
:104BB00000BFCFE7C8000020CC00002074520000E6
:104BC0007C520000685200007052000078520000D1
:104BD000094B000075432F4F532D49494920546913
:104BE000636B205461736B00D836002070B58AB0B7
:104BF00004460020314908603148006840B131481E
:104C000000682F490968B0FBF1F02F49086006E001
:104C10002C4800680A21B0FBF1F02B4908602A48B3
:104C200000682A490860002029490860294908606D
:104C3000002508E0284800EBC5060020B080F08081
:104C40003060681C85B2254800888542F2DB244824
:104C5000006820B947F2473020800AB070BD214873
:104C6000006821490968884203D247F24830208011
:104C7000F3E71E4800781F2803D347F24630208010
:104C8000EBE70B2000210591CDE9070406910846CA
:104C900014490968164A1268114B1B68CDE90132A4
:104CA000CDE90310114800780023124A12A10090A8
:104CB0001748FCF729FB00BFCFE70000D000002019
:104CC000905200006C520000E0000020E400002040
:104CD000DC000020D80000206C320020A45200002C
:104CE000945200009C520000685200008C52000058
:104CF00098520000094E000075432F4F532D49492B
:104D0000492054696D6572205461736B0000000086
:104D1000A0370020F0B50C46022680F82A60012C4E
:104D200005D12D4F466A3F683E4486610CE0066A15
:104D30002EB9294F466A3F683E44866104E0264FFB
:104D4000066A3F683E448661244F3F888669B6FB09
:104D5000F7FC07FB1C66B5B2214E06EBC5021668D0
:104D600036B90026066146611060012696802CE067
:104D7000194F86693F68F61BC661116820E0164F1F
:104D80008E693F68F61BCE61C669CF69BE4209D9FC
:104D90000E690EB1096913E00026066141610861E0
:104DA00000210DE04E692EB900264661016148617F
:104DB000106004E04B6943610161186148610021A2
:104DC0000029DCD19688761C9680D6889788BE42CA
:104DD00001DA9688D680F0BDDC000020A4520000E5
:104DE0006C320020002006E0054A02EBC0010022E0
:104DF000CA80421C90B2034A12889042F4DB70478A
:104E00006C320020A45200001CB500BF53E001AB7F
:104E10006A4600210846FCF72DFD01A8FCF774F84E
:104E2000FBF71EFD064624480068401C2249086026
:104E30000846006821490988B0FBF1F201FB120025
:104E40001FFA80FA1E4800EBCA08D8F800404FF05D
:104E5000000B21E0F4B1D4F810901749A06909685B
:104E6000884214D1204600F02FF8208D022804D16A
:104E700001212046FFF74EFF02E0032084F82A00BC
:104E8000A56815B12046E168A8474C4604E04FF0FC
:104E9000010B01E04FF0010BBBF1000FDAD0FBF783
:104EA000DFFC871B01A8FCF76DF806480068B842D4
:104EB00001D204480760AAE7DC000020A4520000E9
:104EC0006C320020D8000020F0B5114E368885697C
:104ED000B5FBF6F706FB1755ACB20E4D05EBC40259
:104EE0001568854205D10169116039B100254D6110
:104EF00004E0416903690B6103B15961012580F840
:104F00002A5000250561456195886D1E9580F0BD8C
:104F1000A45200006C3200200EB54FF4E130009036
:104F20000120ADF804000020ADF80600ADF808003F
:104F3000ADF80A006946FBF785FD0EBD704700001D
:104F400010203B49086001203A49C1F800033A4962
:104F5000086000BF394800682728FBD13548406AFF
:104F600020F440603349486201203549086000BFA1
:104F70003348603000680028FAD02E48406820F09E
:104F80000700C01C2B49486000BF2A48406B032122
:104F900001EA90700328F8D12A48006820F0070041
:104FA000401C2949C1F80002002022490862244916
:104FB0000839086001202249AC390862C1F8A8000C
:104FC00000BF1F485C3000680028FAD000201A4952
:104FD00008601B49AC3908624FF0106015498861C0
:104FE000012017490839086000BF1548583000688B
:104FF0000028FAD01348006820F00700C01C1249AE
:10500000C1F8000201200B4908620846406820F000
:105010000300401C486000BF0648406B032101EAC2
:1050200090700128F8D1094908610863C861704788
:105030000C810840008008401806104308A1064073
:10504000AC0010430002084000000840004000434C
:1050500070B5446D4E000125B54024EA05034C00AF
:1050600002FA04F41C43446570BD0146D1F8900077
:1050700070470146D1F8940070470146D1F8980076
:1050800070470146D1F89C007047000070B5044697
:105090000D46206920F01F00E9880843A9880843CD
:1050A000298908432061606A20F003006989084368
:1050B0006062B4F1804F07D11820FBF785FA2968A8
:1050C000B0FBF1F0A0631FE01048844207D11A2022
:1050D000FBF77AFA2968B0FBF1F0A06314E00C4802
:1050E000844207D11C20FBF76FFA2968B0FBF1F06E
:1050F000A06309E00748844206D11E20FBF764FA4A
:105100002968B0FBF1F0A06370BD0000000004400E
:10511000001000400010044010B532B1C3684FF4D5
:1051200080748C402343C36005E0C3684FF48074EF
:105130008C40A343C36010BD00BFFEE702E008C877
:10514000121F08C1002AFAD170477047002001E001
:1051500001C1121F002AFBD1704700008AB0FBF783
:105160006FF909A8FBF728FD09A803210022059281
:10517000CDE906210890052080210C22084BCDE9BD
:105180000132CDE9031002200023064A06A1009057
:105190000948FCF7B9F809A8FBF744FF00BFFEE790
:1051A0005404002059030000417070205461736B57
:1051B00020537461727400003401002000000B4021
:1051C00000200B4000400B4000600B4000800B4073
:1051D000030300008000000100040000000204043A
:1051E0000080020004000100000F010200000040E6
:1051F0000000040006000000080006000010004047
:10520000020000020600020000040600641E0020E6
:105210000C0000008000000000020000642000205C
:105220000A00000040010000A42100200C00000042
:105230008000000000020000A42300208000000085
:10524000000200006400000040060000A4250020C9
:105250000B0000000A000000E42B00200C000000FE
:10526000800000000002000040000000E803000091
:105270000A000000E42D00200C0000008000000067
:105280000002000011000000880000000B00000078
:105290000A0000006C3000200C00000080000000BC
:1052A00000020000110000008800000090140000BF
:1052B00001010100785634120101000000000000D5
:1052C00000000000000000000000000000000000DE
:1052D00000000000000000000000000000000000CE
:1052E000000000000101010028000400200001006E
:1052F00000000000000000000000000000000000AE
:10530000000000000000000000000000000000009D
:1053100001002000010010000C001000000000003F
:10532000000000000000000000000000000000007D
:10533000000000000000000000000000000000006D
:105340000000000000000000010101002C0001012C
:1053500020000C00200020000400040000000000D9
:10536000000000000000000000000000000000003D
:10537000000000000000000000000000000000002D
:105380000000000000000000000000000101010119
:1053900030000100000000000000000000000000DC
:1053A00000000000000000000000000000000000FD
:1053B00000000000000000000000000001010101E9
:1053C00028000C008001000004010101010101011D
:1053D00001000101C80008000101000000000000F8
:1053E00000000000000000000000000000000000BD
:1053F00000000000000000000000000000000000AD
:10540000000000000000000000000000000000009C
:105410000101340008005D762A0600003C540000BB
:1054200000000020F40000003C5100003055000056
:10543000F4000020743900004C510000000000000E
:10544000000000000000000000000000000000005C
:10545000000000000000000000000000000000004C
:10546000000000000000000000000000000000003C
:10547000000000000000000000000000000000002C
:10548000000000000000000000000000000000001C
:10549000000000000000000000000000000000000C
:1054A00000000000000000000000000000000000FC
:1054B00000000000000000000000000000000000EC
:1054C00000000000000000000000000000000000DC
:1054D00000000000000000000000000000000000CC
:1054E00000000000000000000000000000000000BC
:1054F00000000000000000000000000000000000AC
:10550000000000000000000000000000000000009B
:10551000000000000000000000000000000000008B
:10552000000000000000000000000000000000007B
:0400000500000155A1
:00000001FF
